:020000040800F2
:100000008006002029020008EB020008E702000831
:10001000E9020008E302000889040008000000006B
:100020000000000000000000000000007103000854
:10003000E502000800000000ED02000829040008A5
:10004000430200084302000843020008430200087C
:10005000430200084302000843020008430200086C
:10006000430200084302000843020008430200085C
:10007000430200084302000843020008430200084C
:10008000430200084302000843020008430200083C
:10009000430200084302000843020008430200082C
:1000A000430200084302000843020008430200081C
:1000B000430200084302000843020008430200080C
:1000C00043020008430200084302000843020008FC
:1000D00043020008430200084302000843020008EC
:1000E00043020008430200084302000843020008DC
:1000F00043020008430200084302000843020008CC
:1001000043020008430200084302000843020008BB
:1001100043020008430200084302000843020008AB
:10012000430200084302000843020008430200089B
:10013000430200084302000843020008430200088B
:10014000430200084302000843020008430200087B
:10015000430200084302000843020008430200086B
:10016000430200084302000843020008430200085B
:10017000430200084302000843020008430200084B
:10018000430200084302000800F002F800F03CF8C7
:100190000AA090E8000C82448344AAF10107DA45E2
:1001A00001D100F031F8AFF2090EBAE80F0013F0F8
:1001B000010F18BFFB1A43F001031847E8020000C3
:1001C00008030000103A24BF78C878C1FAD8520753
:1001D00024BF30C830C144BF04680C6070470000C1
:1001E0000023002400250026103A28BF78C1FBD840
:1001F000520728BF30C148BF0B6070471FB500F0E1
:100200004BF91FBD10B510BD00F031F81146FFF7D6
:10021000F5FF00F03BF900F04FF803B4FFF7F2FFF1
:1002200003BC00F057F80000094880470948004720
:10023000FEE7FEE7FEE7FEE7FEE7FEE7FEE7FEE796
:10024000FEE7FEE704480549054A064B70470000F3
:100250002D0400088901000880000020800600208D
:10026000800200208002002070477047704775466A
:1002700000F02CF8AE4605006946534620F0070012
:10028000854618B020B5FFF7DDFFBDE820404FF0F0
:1002900000064FF000074FF000084FF0000B21F070
:1002A0000701AC46ACE8C009ACE8C009ACE8C0093D
:1002B000ACE8C0098D46704710B50446AFF3008026
:1002C0002046BDE81040FFF7A8BF00000048704777
:1002D0002000002001491820ABBEFEE726000200E6
:1002E0007047FEE77047FEE7FEE770477047000083
:1002F00030B51C4C21681C4A11F00C0103D00429B4
:1003000001D0082901D0026013E0164B1B1F1968A9
:10031000196801F03F01B2FBF1F11A68C2F38812CB
:1003200051431A68C2F30142521C5200B1FBF2F170
:10033000016021680F2202EA11110C4A535C016826
:10034000D94041602368072505EA9323D35C21FA4D
:1003500003F38360236805EA5333D25CD140C16064
:1003600030BD0000083802400024F40000000020E6
:10037000704700000CB500232749009301930868DB
:1003800040F4803008604FF6FF700A6802F40032D3
:100390000192009A521C0092019A12B9009A82426C
:1003A000F3D10868800334D5012001901A48403009
:1003B000026842F0805202601848026842F48042AB
:1003C00002601548083002680260026842F4004288
:1003D0000260026842F4A0520260021F104B1360D8
:1003E0000A6842F080720A600A689201FCD50D4AE0
:1003F00040F205611160016821F0030101600168AC
:1004000041F0020101600168C1F381010229FAD1C2
:100410000CBD01930CBD000000380240007000408C
:1004200010544007003C024070470000124810B5CD
:10043000016841F4700101601048016841F0010158
:1004400001600E4A00210832116002680C4B1A400C
:100450000260031D0B4A1A60026822F480220260C7
:1004600006480C300160FFF785FF03494FF000603C
:100470008039086010BD000088ED00E000380240BF
:10048000FFFFF6FE10300024FEE700000148FFF7F2
:100490002FFFFEE7100000204FF04070E1EE100A41
:1004A00070470000C4040008000000201000000095
:1004B000C4010008D40400081000002070060000E9
:1004C000E00100080000000001020304010203042F
:0404D000060708090A
:040000050800018965
:00000001FF
